{
    "_format": "hh-sol-artifact-1",
    "contractName": "MiniBlogV6",
    "sourceName": "contracts/sixth.sol",
    "abi": [
        {
            "anonymous": false,
            "inputs": [
                {
                    "indexed": true,
                    "internalType": "address",
                    "name": "author",
                    "type": "address"
                },
                {
                    "indexed": false,
                    "internalType": "uint256",
                    "name": "postId",
                    "type": "uint256"
                },
                {
                    "indexed": false,
                    "internalType": "string",
                    "name": "title",
                    "type": "string"
                }
            ],
            "name": "NewPost",
            "type": "event"
        },
        {
            "inputs": [
                {
                    "internalType": "string",
                    "name": "title",
                    "type": "string"
                },
                {
                    "internalType": "string",
                    "name": "content",
                    "type": "string"
                }
            ],
            "name": "createPost",
            "outputs": [],
            "stateMutability": "nonpayable",
            "type": "function"
        },
        {
            "inputs": [
                {
                    "internalType": "uint256",
                    "name": "postId",
                    "type": "uint256"
                }
            ],
            "name": "getPostById",
            "outputs": [
                {
                    "internalType": "string",
                    "name": "title",
                    "type": "string"
                },
                {
                    "internalType": "string",
                    "name": "content",
                    "type": "string"
                }
            ],
            "stateMutability": "view",
            "type": "function"
        },
        {
            "inputs": [
                {
                    "internalType": "address",
                    "name": "author",
                    "type": "address"
                }
            ],
            "name": "getPostIdsByAuthor",
            "outputs": [
                {
                    "internalType": "uint256[]",
                    "name": "",
                    "type": "uint256[]"
                }
            ],
            "stateMutability": "view",
            "type": "function"
        },
        {
            "inputs": [],
            "name": "latestPostId",
            "outputs": [
                {
                    "internalType": "uint256",
                    "name": "",
                    "type": "uint256"
                }
            ],
            "stateMutability": "view",
            "type": "function"
        },
        {
            "inputs": [
                {
                    "internalType": "uint256",
                    "name": "postId",
                    "type": "uint256"
                },
                {
                    "internalType": "string",
                    "name": "content",
                    "type": "string"
                }
            ],
            "name": "modifyPostContent",
            "outputs": [],
            "stateMutability": "nonpayable",
            "type": "function"
        },
        {
            "inputs": [
                {
                    "internalType": "uint256",
                    "name": "postId",
                    "type": "uint256"
                },
                {
                    "internalType": "string",
                    "name": "title",
                    "type": "string"
                }
            ],
            "name": "modifyPostTitle",
            "outputs": [],
            "stateMutability": "nonpayable",
            "type": "function"
        },
        {
            "inputs": [
                {
                    "internalType": "uint256",
                    "name": "",
                    "type": "uint256"
                }
            ],
            "name": "posts",
            "outputs": [
                {
                    "internalType": "string",
                    "name": "title",
                    "type": "string"
                },
                {
                    "internalType": "string",
                    "name": "content",
                    "type": "string"
                },
                {
                    "internalType": "address",
                    "name": "author",
                    "type": "address"
                },
                {
                    "internalType": "uint256",
                    "name": "created",
                    "type": "uint256"
                }
            ],
            "stateMutability": "view",
            "type": "function"
        },
        {
            "inputs": [
                {
                    "internalType": "string",
                    "name": "bio",
                    "type": "string"
                }
            ],
            "name": "updateBio",
            "outputs": [],
            "stateMutability": "nonpayable",
            "type": "function"
        },
        {
            "inputs": [
                {
                    "internalType": "string",
                    "name": "username",
                    "type": "string"
                }
            ],
            "name": "updateUsername",
            "outputs": [],
            "stateMutability": "nonpayable",
            "type": "function"
        },
        {
            "inputs": [
                {
                    "internalType": "address",
                    "name": "",
                    "type": "address"
                }
            ],
            "name": "users",
            "outputs": [
                {
                    "internalType": "string",
                    "name": "username",
                    "type": "string"
                },
                {
                    "internalType": "string",
                    "name": "bio",
                    "type": "string"
                }
            ],
            "stateMutability": "view",
            "type": "function"
        }
    ],
    "bytecode": "0x60806040526000805534801561001457600080fd5b50611239806100246000396000f3fe608060405234801561001057600080fd5b506004361061009e5760003560e01c806396d86a991161006657806396d86a991461016f5780639735f90f1461018b5780639b15d047146101a7578063a87430ba146101c5578063c96cea70146101f65761009e565b80630b1e7f83146100a3578063392338f5146100d657806364e95895146100f25780636910cf8e1461012357806376487b3814610153575b600080fd5b6100bd60048036038101906100b89190610ca6565b610212565b6040516100cd9493929190610e7b565b60405180910390f35b6100f060048036038101906100eb9190610c3a565b610372565b005b61010c60048036038101906101079190610ca6565b610523565b60405161011a929190610e44565b60405180910390f35b61013d60048036038101906101389190610bd0565b61066d565b60405161014a9190610e22565b60405180910390f35b61016d60048036038101906101689190610bf9565b610707565b005b61018960048036038101906101849190610ccf565b610761565b005b6101a560048036038101906101a09190610ccf565b610834565b005b6101af610907565b6040516101bc9190610eee565b60405180910390f35b6101df60048036038101906101da9190610bd0565b61090d565b6040516101ed929190610e44565b60405180910390f35b610210600480360381019061020b9190610bf9565b610a41565b005b600260205280600052604060002060009150905080600001805461023590611062565b80601f016020809104026020016040519081016040528092919081815260200182805461026190611062565b80156102ae5780601f10610283576101008083540402835291602001916102ae565b820191906000526020600020905b81548152906001019060200180831161029157829003601f168201915b5050505050908060010180546102c390611062565b80601f01602080910402602001604051908101604052809291908181526020018280546102ef90611062565b801561033c5780601f106103115761010080835404028352916020019161033c565b820191906000526020600020905b81548152906001019060200180831161031f57829003601f168201915b5050505050908060020160009054906101000a900473ffffffffffffffffffffffffffffffffffffffff16908060030154905084565b600080815480929190610384906110c5565b919050555060405180608001604052808381526020018281526020013373ffffffffffffffffffffffffffffffffffffffff16815260200142815250600260008054815260200190815260200160002060008201518160000190805190602001906103f0929190610a9b565b50602082015181600101908051906020019061040d929190610a9b565b5060408201518160020160006101000a81548173ffffffffffffffffffffffffffffffffffffffff021916908373ffffffffffffffffffffffffffffffffffffffff16021790555060608201518160030155905050600160003373ffffffffffffffffffffffffffffffffffffffff1673ffffffffffffffffffffffffffffffffffffffff16815260200190815260200160002060020160005490806001815401808255809150506001900390600052602060002001600090919091909150553373ffffffffffffffffffffffffffffffffffffffff167fd8c86c7877c3f1f8a40af6cf64a11fe867af887f2a1ad31aac849e36730425b060005484604051610517929190610f09565b60405180910390a25050565b60608060026000848152602001908152602001600020600001805461054790611062565b80601f016020809104026020016040519081016040528092919081815260200182805461057390611062565b80156105c05780601f10610595576101008083540402835291602001916105c0565b820191906000526020600020905b8154815290600101906020018083116105a357829003601f168201915b505050505091506002600084815260200190815260200160002060010180546105e890611062565b80601f016020809104026020016040519081016040528092919081815260200182805461061490611062565b80156106615780601f1061063657610100808354040283529160200191610661565b820191906000526020600020905b81548152906001019060200180831161064457829003601f168201915b50505050509050915091565b6060600160008373ffffffffffffffffffffffffffffffffffffffff1673ffffffffffffffffffffffffffffffffffffffff1681526020019081526020016000206002018054806020026020016040519081016040528092919081815260200182805480156106fb57602002820191906000526020600020905b8154815260200190600101908083116106e7575b50505050509050919050565b80600160003373ffffffffffffffffffffffffffffffffffffffff1673ffffffffffffffffffffffffffffffffffffffff168152602001908152602001600020600101908051906020019061075d929190610a9b565b5050565b6002600083815260200190815260200160002060020160009054906101000a900473ffffffffffffffffffffffffffffffffffffffff1673ffffffffffffffffffffffffffffffffffffffff163373ffffffffffffffffffffffffffffffffffffffff1614610805576040517f08c379a00000000000000000000000000000000000000000000000000000000081526004016107fc90610ece565b60405180910390fd5b8060026000848152602001908152602001600020600101908051906020019061082f929190610a9b565b505050565b6002600083815260200190815260200160002060020160009054906101000a900473ffffffffffffffffffffffffffffffffffffffff1673ffffffffffffffffffffffffffffffffffffffff163373ffffffffffffffffffffffffffffffffffffffff16146108d8576040517f08c379a00000000000000000000000000000000000000000000000000000000081526004016108cf90610ece565b60405180910390fd5b80600260008481526020019081526020016000206000019080519060200190610902929190610a9b565b505050565b60005481565b600160205280600052604060002060009150905080600001805461093090611062565b80601f016020809104026020016040519081016040528092919081815260200182805461095c90611062565b80156109a95780601f1061097e576101008083540402835291602001916109a9565b820191906000526020600020905b81548152906001019060200180831161098c57829003601f168201915b5050505050908060010180546109be90611062565b80601f01602080910402602001604051908101604052809291908181526020018280546109ea90611062565b8015610a375780601f10610a0c57610100808354040283529160200191610a37565b820191906000526020600020905b815481529060010190602001808311610a1a57829003601f168201915b5050505050905082565b80600160003373ffffffffffffffffffffffffffffffffffffffff1673ffffffffffffffffffffffffffffffffffffffff1681526020019081526020016000206000019080519060200190610a97929190610a9b565b5050565b828054610aa790611062565b90600052602060002090601f016020900481019282610ac95760008555610b10565b82601f10610ae257805160ff1916838001178555610b10565b82800160010185558215610b10579182015b82811115610b0f578251825591602001919060010190610af4565b5b509050610b1d9190610b21565b5090565b5b80821115610b3a576000816000905550600101610b22565b5090565b6000610b51610b4c84610f5e565b610f39565b905082815260208101848484011115610b6957600080fd5b610b74848285611020565b509392505050565b600081359050610b8b816111d5565b92915050565b600082601f830112610ba257600080fd5b8135610bb2848260208601610b3e565b91505092915050565b600081359050610bca816111ec565b92915050565b600060208284031215610be257600080fd5b6000610bf084828501610b7c565b91505092915050565b600060208284031215610c0b57600080fd5b600082013567ffffffffffffffff811115610c2557600080fd5b610c3184828501610b91565b91505092915050565b60008060408385031215610c4d57600080fd5b600083013567ffffffffffffffff811115610c6757600080fd5b610c7385828601610b91565b925050602083013567ffffffffffffffff811115610c9057600080fd5b610c9c85828601610b91565b9150509250929050565b600060208284031215610cb857600080fd5b6000610cc684828501610bbb565b91505092915050565b60008060408385031215610ce257600080fd5b6000610cf085828601610bbb565b925050602083013567ffffffffffffffff811115610d0d57600080fd5b610d1985828601610b91565b9150509250929050565b6000610d2f8383610e04565b60208301905092915050565b610d4481610fe4565b82525050565b6000610d5582610f9f565b610d5f8185610fc2565b9350610d6a83610f8f565b8060005b83811015610d9b578151610d828882610d23565b9750610d8d83610fb5565b925050600181019050610d6e565b5085935050505092915050565b6000610db382610faa565b610dbd8185610fd3565b9350610dcd81856020860161102f565b610dd68161119b565b840191505092915050565b6000610dee601a83610fd3565b9150610df9826111ac565b602082019050919050565b610e0d81611016565b82525050565b610e1c81611016565b82525050565b60006020820190508181036000830152610e3c8184610d4a565b905092915050565b60006040820190508181036000830152610e5e8185610da8565b90508181036020830152610e728184610da8565b90509392505050565b60006080820190508181036000830152610e958187610da8565b90508181036020830152610ea98186610da8565b9050610eb86040830185610d3b565b610ec56060830184610e13565b95945050505050565b60006020820190508181036000830152610ee781610de1565b9050919050565b6000602082019050610f036000830184610e13565b92915050565b6000604082019050610f1e6000830185610e13565b8181036020830152610f308184610da8565b90509392505050565b6000610f43610f54565b9050610f4f8282611094565b919050565b6000604051905090565b600067ffffffffffffffff821115610f7957610f7861116c565b5b610f828261119b565b9050602081019050919050565b6000819050602082019050919050565b600081519050919050565b600081519050919050565b6000602082019050919050565b600082825260208201905092915050565b600082825260208201905092915050565b6000610fef82610ff6565b9050919050565b600073ffffffffffffffffffffffffffffffffffffffff82169050919050565b6000819050919050565b82818337600083830152505050565b60005b8381101561104d578082015181840152602081019050611032565b8381111561105c576000848401525b50505050565b6000600282049050600182168061107a57607f821691505b6020821081141561108e5761108d61113d565b5b50919050565b61109d8261119b565b810181811067ffffffffffffffff821117156110bc576110bb61116c565b5b80604052505050565b60006110d082611016565b91507fffffffffffffffffffffffffffffffffffffffffffffffffffffffffffffffff8214156111035761110261110e565b5b600182019050919050565b7f4e487b7100000000000000000000000000000000000000000000000000000000600052601160045260246000fd5b7f4e487b7100000000000000000000000000000000000000000000000000000000600052602260045260246000fd5b7f4e487b7100000000000000000000000000000000000000000000000000000000600052604160045260246000fd5b6000601f19601f8301169050919050565b7f4f6e6c792074686520617574686f722063616e206d6f64696679000000000000600082015250565b6111de81610fe4565b81146111e957600080fd5b50565b6111f581611016565b811461120057600080fd5b5056fea2646970667358221220278f6f1f5fe6ae77b59fc0c40d9c5d9cee71b7ccc078e4ce50c929eb51aed72f64736f6c63430008040033",
    "linkReferences": {},
    "deployedLinkReferences": {}
}