{
    "_format": "hh-sol-artifact-1",
    "contractName": "MiniBlogV2",
    "sourceName": "contracts/second.sol",
    "abi": [
        {
            "inputs": [],
            "name": "latestPostId",
            "outputs": [
                {
                    "internalType": "uint256",
                    "name": "",
                    "type": "uint256"
                }
            ],
            "stateMutability": "view",
            "type": "function"
        },
        {
            "inputs": [
                {
                    "internalType": "uint256",
                    "name": "",
                    "type": "uint256"
                }
            ],
            "name": "posts",
            "outputs": [
                {
                    "internalType": "string",
                    "name": "title",
                    "type": "string"
                },
                {
                    "internalType": "string",
                    "name": "content",
                    "type": "string"
                },
                {
                    "internalType": "address",
                    "name": "author",
                    "type": "address"
                },
                {
                    "internalType": "uint256",
                    "name": "created",
                    "type": "uint256"
                }
            ],
            "stateMutability": "view",
            "type": "function"
        },
        {
            "inputs": [
                {
                    "internalType": "address",
                    "name": "",
                    "type": "address"
                }
            ],
            "name": "users",
            "outputs": [
                {
                    "internalType": "string",
                    "name": "username",
                    "type": "string"
                },
                {
                    "internalType": "string",
                    "name": "bio",
                    "type": "string"
                }
            ],
            "stateMutability": "view",
            "type": "function"
        }
    ],
    "bytecode": "0x60806040526000805534801561001457600080fd5b5061063b806100246000396000f3fe608060405234801561001057600080fd5b50600436106100415760003560e01c80630b1e7f83146100465780639b15d04714610079578063a87430ba14610097575b600080fd5b610060600480360381019061005b91906103b5565b6100c8565b604051610070949392919061046c565b60405180910390f35b610081610228565b60405161008e91906104bf565b60405180910390f35b6100b160048036038101906100ac919061038c565b61022e565b6040516100bf929190610435565b60405180910390f35b60026020528060005260406000206000915090508060000180546100eb90610565565b80601f016020809104026020016040519081016040528092919081815260200182805461011790610565565b80156101645780601f1061013957610100808354040283529160200191610164565b820191906000526020600020905b81548152906001019060200180831161014757829003601f168201915b50505050509080600101805461017990610565565b80601f01602080910402602001604051908101604052809291908181526020018280546101a590610565565b80156101f25780601f106101c7576101008083540402835291602001916101f2565b820191906000526020600020905b8154815290600101906020018083116101d557829003601f168201915b5050505050908060020160009054906101000a900473ffffffffffffffffffffffffffffffffffffffff16908060030154905084565b60005481565b600160205280600052604060002060009150905080600001805461025190610565565b80601f016020809104026020016040519081016040528092919081815260200182805461027d90610565565b80156102ca5780601f1061029f576101008083540402835291602001916102ca565b820191906000526020600020905b8154815290600101906020018083116102ad57829003601f168201915b5050505050908060010180546102df90610565565b80601f016020809104026020016040519081016040528092919081815260200182805461030b90610565565b80156103585780601f1061032d57610100808354040283529160200191610358565b820191906000526020600020905b81548152906001019060200180831161033b57829003601f168201915b5050505050905082565b600081359050610371816105d7565b92915050565b600081359050610386816105ee565b92915050565b60006020828403121561039e57600080fd5b60006103ac84828501610362565b91505092915050565b6000602082840312156103c757600080fd5b60006103d584828501610377565b91505092915050565b6103e7816104f6565b82525050565b60006103f8826104da565b61040281856104e5565b9350610412818560208601610532565b61041b816105c6565b840191505092915050565b61042f81610528565b82525050565b6000604082019050818103600083015261044f81856103ed565b9050818103602083015261046381846103ed565b90509392505050565b6000608082019050818103600083015261048681876103ed565b9050818103602083015261049a81866103ed565b90506104a960408301856103de565b6104b66060830184610426565b95945050505050565b60006020820190506104d46000830184610426565b92915050565b600081519050919050565b600082825260208201905092915050565b600061050182610508565b9050919050565b600073ffffffffffffffffffffffffffffffffffffffff82169050919050565b6000819050919050565b60005b83811015610550578082015181840152602081019050610535565b8381111561055f576000848401525b50505050565b6000600282049050600182168061057d57607f821691505b6020821081141561059157610590610597565b5b50919050565b7f4e487b7100000000000000000000000000000000000000000000000000000000600052602260045260246000fd5b6000601f19601f8301169050919050565b6105e0816104f6565b81146105eb57600080fd5b50565b6105f781610528565b811461060257600080fd5b5056fea26469706673582212208c30d47274f6534e9720ea40af2ca244b63c509b1ba1a922f0d71b04226e165a64736f6c63430008040033",
    "linkReferences": {},
    "deployedLinkReferences": {}
}